:020000040000FA
:0402FC00FFFFFFFF02
:020000040001F9
:10020000601000104D030100510301005303010071
:1002100055030100570301005903010000000000CD
:100220000000000000000000000000005B0301006F
:100230005D030100000000005F0301006103010095
:100240006303010063030100630301006303010012
:100250006303010063030100630301006303010002
:1002600063030100630301006303010063030100F2
:1002700063030100630301006303010063030100E2
:1002800063030100630301006303010063030100D2
:1002900063030100630301006303010063030100C2
:1002A00063030100630301006303010063030100B2
:1002B00063030100630301006303010063030100A2
:1002C00063030100630301006303010000F002F80F
:1002D00000F02CF80AA090E8000C82448344AAF1B4
:1002E0000107DA4501D100F021F8AFF2090EBAE8B2
:1002F0000F0013F0010F18BFFB1A43F0010318475A
:1003000098030000A8030000002300240025002615
:10031000103A28BF78C1FBD8520728BF30C148BF68
:100320000B6070471FB51FBD10B510BD00F02BF856
:100330001146FFF7F7FF00F0A8F900F049F803B401
:10034000FFF7F2FF03BC00F051F800000848004737
:10035000FEE7FEE7FEE7FEE7FEE7FEE7FEE7FEE775
:10036000FEE7FEE703480449024A044B70470000D9
:10037000CD0201006000001060100010600000104D
:10038000704770477047754600F02CF8AE46050080
:100390006946534620F00700854618B020B5FFF7A0
:1003A000E1FFBDE820404FF000064FF000074FF09E
:1003B00000084FF0000B21F00701AC46ACE8C00983
:1003C000ACE8C009ACE8C009ACE8C0098D4670478C
:1003D00010B50446AFF300802046BDE81040FFF79B
:1003E000AEBF00000048704700000010014918200F
:1003F000ABBEFEE726000200704710B5002406E001
:1004000000231A462146022000F02CF8641C082C18
:10041000F6DB13240BE000231A462146184600F0B1
:1004200021F801222146002000F02EF8641C192C2E
:10043000F1DD10BD10B50446082C00D310BD00221C
:100440002146022000F020F800BFF7E710B504466F
:10045000082C00D310BD01222146022000F014F820
:1004600000BFF7E72DE9F04105460E4617461C464A
:100470003A463146284600F01BF8224631462846C7
:1004800000F024F8BDE8F08130B503460C460125A4
:1004900005FA04F1054D05EB431005680D430560B1
:1004A000012A01D1816100E0C16130BD00C0092095
:1004B00070B504460D46164633462A462146024884
:1004C00000F012F870BD000000C0024070B5044694
:1004D0000D46164633462A462146024800F004F8E7
:1004E00070BD000040C00240F0B50C4651006600EF
:1004F00006EB511501F01F0100EB8500066803278C
:100500008F40BE430660066803FA01F73E4306606B
:10051000F0BD000020204B4908604B48D0F8A001F6
:1005200000F0200030B100BF4648006800F04000F5
:100530000028F9D0032043499C3908600020424933
:10054000C1F8A8013F490C31086001203D499439A8
:1005500008603E483C4984310860AA203A498C3101
:100560000860552008600120374980310860AA20C2
:1005700035498C31086055203349C1F88C0000BFE3
:1005800031488830006800F080600028F8D00320EF
:100590002D4980310860AA202B49C1F88C005520D4
:1005A00029498C31086000BF27488830006800F076
:1005B0004070B0F1407FF7D123202349A431086077
:1005C000AA202149C1F8AC0055201F49AC31086070
:1005D00001201D49A0310860AA201B49AC310860E8
:1005E00055201949C1F8AC0000BF1748A830006871
:1005F00000F480600028F8D003201349A03108607F
:10060000AA201149C1F8AC0055200F49AC3108604F
:1006100000BF0D48A830006800F44070B0F5407F7E
:10062000F7D10B480849C431086000200649C1F8D9
:10063000C8010846006820F4704040F4804008601B
:1006400070470000A0C10F4000C00F4063000500CC
:10065000DE87280400BF46F2A71200FB02F100BFAC
:100660000A1EA1F10101FBD170470DE00220FFF746
:10067000EDFE4FF47A70FFF7EDFF0220FFF7DAFE90
:100680004FF47A70FFF7E6FFF0E7FFF743FFFFF75D
:10069000B4FEFFF7EAFF0000A8060100000000100A
:0806A0006010000008030100D6
:04000005000102CD27
:00000001FF
